S012000046696E616C204175746F2E737265636F
S11300000C942A000C9447000C94DA010C944700D9
S11300100C9447000C9447000C9447000C94470040
S11300200C9447000C9447000C9447000C94640211
S11300300C9447000C9447000C9447000C94470020
S11300400C9447000C9447000C9447000C94470010
S11300500C94470011241FBECFE5D8E0DEBFCDBF0E
S113006010E0A0E6B0E0E2ECFBE002C005900D92E7
S1130070A03AB107D9F720E0A0EAB0E001C01D9290
S1130080A43BB207E1F70E949D020C94DF050C9497
S1130090000084B3886084BB84B3806184BB84B370
S11300A0806284BB84B3806484BB87B3806287BB73
S11300B087B3806487BB089585B3886085BB85B3A7
S11300C08F7E85BB85B3806285BB85B38F7B85BB03
S11300D088B3806288BB88B3806488BB089585B385
S11300E0886085BB85B38F7E85BB85B38F7D85BBDB
S11300F085B38F7B85BB88B3806288BB88B38F7BD5
S113010088BB089585B3877F85BB85B38F7E85BB08
S113011085B3806285BB85B38F7B85BB88B38F7DB8
S113012088BB88B3806488BB089585B3877F85BB0B
S113013085B3806185BB85B38F7D85BB85B38064C2
S113014085BB88B3806288BB88B3806488BB08950C
S113015085B3877F85BB85B38F7E85BB85B38F7D54
S113016085BB85B38F7B85BB88B38F7D88BB88B304
S11301708F7B88BB0895982F907F9BBB98B39D7FFE
S113018098BB98B3986098BBEFE1FEE43197F1F720
S113019000C0000098B3977F98BBEFE1FEE431976D
S11301A0F1F700C00000F0E18F9FC00111248BBB68
S11301B088B3886088BB8FE19EE40197F1F700C0A3
S11301C0000088B3877F88BBEFE1FEE43197F1F745
S11301D000C00000089580EF8ABB87B38E6087BBA0
S11301E080E28BBB88B3886088BB8FE19EE4019773
S11301F0F1F700C0000088B3877F88BB8FE19EE4DD
S11302000197F1F700C0000088E20E94BB008FE173
S11302109EE40197F1F700C000008FE00E94BB004C
S11302208FE19EE40197F1F700C0000080E50E9491
S1130230BB008FE19EE40197F1F700C00000089530
S1130240982F907F9BBB98B3926098BB98B39860AB
S113025098BBEFE1FEE43197F1F700C0000098B3DA
S1130260977F98BBEFE1FEE43197F1F700C00000FF
S1130270F0E18F9FC00111248BBB88B3886088BBD9
S11302808FE19EE40197F1F700C0000088B3877FF7
S113029088BBEFE1FEE43197F1F700C00000089558
S11302A00F931F93CF93DF938C01C0E0D0E009C07C
S11302B00E94200121968FE19EE40197F1F700C08E
S11302C00000F801EC0FFD1F80818111F1CFDF9157
S11302D0CF911F910F91089581E00E94BB008FE19F
S11302E09EE40197F1F700C00000089520E4829F86
S11302F0C00111248068860F0E94BB008FEE90E03D
S11303000197F1F700C0000008958FB5826A8FBD90
S11303108EB58B618EBD87E893E197BD86BD43E0C2
S113032064E083E00E94750343E065E083E00E949B
S1130330750308950E9485010895682F70E080E098
S113034090E00E948F0425E83BEE41E350E40E94D4
S11303501B0520E030E04AEF52E40E94EB030E94C8
S113036057047BBD6ABD089585B7846085BF8BB78C
S113037080688BBF089581B3816081BB81B3877F1F
S113038081BB82B3886082BB0E94B4010E94E203F5
S113039008958091A50081110CC082B3816082BB55
S11303A080E58A95F1F782B38E7F82BB81E08093EA
S11303B0A50008951F920F920FB60F9211242F9348
S11303C03F934F935F936F937F938F939F93AF93D9
S11303D0BF93EF93FF938091A500813009F063C030
S11303E08091A40081110DC012BE81E08093A4000D
S11303F01092A0001092A1001092A2001092A300EB
S113040052C08091A0009091A100A091A200B0914F
S1130410A300BA2FA92F982F882722B7BC01CD019A
S1130420620F711D811D911D24EA33E040E050E00C
S11304300E9488052093A6003093A7004093A8004B
S11304405093A90060E081E00E9476014AE06AEAE4
S113045070E08091A6009091A7000E94AA05AAEAE4
S1130460B0E00D900020E9F7119785E0E0E6F0E0B8
S113047001900D928A95E1F78AEA90E00E9450017A
S11304802FEF83EF91E0215080409040E1F700C0CE
S113049000001092A0001092A1001092A2001092ED
S11304A0A3001092A400FF91EF91BF91AF919F918F
S11304B08F917F916F915F914F913F912F910F9009
S11304C00FBE0F901F9018951F920F920FB60F92A8
S11304D011242F938F939F93AF93BF938091A00088
S11304E09091A100A091A200B091A3000196A11D3A
S11304F0B11D8093A0009093A100A093A200B0939B
S1130500A3008B3D9240A105B10568F012BE109284
S1130510A5001092A4001092A0001092A1001092C5
S1130520A2001092A300BF91AF919F918F912F9140
S11305300F900FBE0F901F9018950E94EB000E9421
S1130540BB010E949A010E944900789485E690E0DC
S11305500E9450018BE49DE10197F1F700C0000077
S11305608AE50E949D018AE50E949D019FEB2CE58E
S113057085E1915020408040E1F700C000000E94D6
S1130580C9019FE926E881E0915020408040E1F7CD
S113059000C0000061E080E00E9476019FE926E847
S11305A081E0915020408040E1F700C0000080913C
S11305B0A6009091A700A091A800B091A9004F9720
S11305C0A105B10508F080C00E94A8008FE00E9438
S11305D09D019FEB2CE585E1915020408040E1F79F
S11305E000C000000E94C9019FE926E881E0915003
S11305F020408040E1F700C000008091A600909167
S1130600A700A091A800B091A9004F97A105B1053A
S113061008F049C00E94A80084EB0E949D019FEB52
S11306202CE585E1915020408040E1F700C00000B6
S11306300E94C9019FE926E881E091502040804052
S1130640E1F700C000008091A6009091A700A0915E
S1130650A800B091A9004F97A105B10598F40E9494
S113066095000E946C0161E080E00E94760181E7C0
S113067090E00E9450018BE49DE10197F1F700C0E6
S1130680000071CF0E94820061E080E00E94760148
S11306908BE790E00E9450018BE49DE10197F1F714
S11306A000C0000060CF0E946F0060E080E00E9404
S11306B0760185E890E00E9450018BE49DE101976A
S11306C0F1F700C000004FCF0E945C0060E080E0C2
S11306D00E9476018BE49DE10197F1F700C00000D0
S11306E080E990E00E9450013ECF813001F130F06A
S11306F08230B1F1833009F44CC00895433059F489
S11307002AB381E090E002C0880F991F6A95E2F74E
S1130710822B8ABB08952AB381E090E002C0880F3F
S1130720991F6A95E2F7809582238ABB0895433026
S113073059F427B381E090E002C0880F991F6A95AD
S1130740E2F7822B87BB089527B381E090E002C0D3
S1130750880F991F6A95E2F78095822387BB0895D5
S1130760433059F424B381E090E002C0880F991F0C
S11307706A95E2F7822B84BB089524B381E090E06C
S113078002C0880F991F6A95E2F78095822384BB83
S11307900895433059F421B381E090E002C0880FFA
S11307A0991F6A95E2F7822B81BB089521B381E0FA
S11307B090E002C0880F991F6A95E2F78095822322
S11307C081BB089513BE81E083BF12BE89B78160E7
S11307D089BF08955058BB27AA270E9402040C948D
S11307E0E1040E94D30438F00E94DA0420F039F4C2
S11307F09F3F19F426F40C94D0040EF4E095E7FB23
S11308000C94CA04E92F0E94F20458F3BA17620741
S113081073078407950720F079F4A6F50C94140562
S11308200EF4E0950B2EBA2FA02D0B01B901900107
S11308300C01CA01A0011124FF27591B99F0593F4B
S113084050F4503E68F11A16F040A22F232F342F93
S11308504427585FF3CF469537952795A795F040E1
S11308605395C9F77EF41F16BA0B620B730B840BF6
S1130870BAF09150A1F0FF0FBB1F661F771F881FAE
S1130880C2F70EC0BA0F621F731F841F48F4879506
S113089077956795B795F7959E3F08F0B0CF9395F8
S11308A0880F08F09927EE0F9795879508950E9471
S11308B05E046894B1110C94150508950E94FA041D
S11308C088F09F5798F0B92F9927B751B0F0E1F00D
S11308D0660F771F881F991F1AF0BA95C9F714C0BD
S11308E0B13091F00E941405B1E008950C94140500
S11308F0672F782F8827B85F39F0B93FCCF38695F6
S113090077956795B395D9F73EF490958095709552
S113091061957F4F8F4F9F4F0895E89409C097FBCF
S11309203EF490958095709561957F4F8F4F9F4FC2
S11309309923A9F0F92F96E9BB279395F695879506
S113094077956795B795F111F8CFFAF4BB0F11F4C9
S113095060FF1BC06F5F7F4F8F4F9F4F16C0882370
S113096011F096E911C0772321F09EE8872F762FA6
S113097005C0662371F096E8862F70E060E02AF0E7
S11309809A95660F771F881FDAF7880F96958795D3
S113099097F9089597F99F6780E870E060E00895FB
S11309A09FEF80EC089500240A9416161706180683
S11309B00906089500240A9412161306140605065F
S11309C00895092E0394000C11F4882352F0BB0FF0
S11309D040F4BF2B11F460FF04C06F5F7F4F8F4F53
S11309E09F4F089557FD9058440F551F59F05F3F8E
S11309F071F04795880F97FB991F61F09F3F79F03D
S1130A0087950895121613061406551FF2CF4695BE
S1130A10F1DF08C0161617061806991FF1CF869540
S1130A207105610508940895E894BB276627772724
S1130A30CB0197F908950E942E050C94E1040E94BD
S1130A40D30438F00E94DA0420F0952311F00C94BA
S1130A50CA040C94D00411240C9415050E94F204C9
S1130A6070F3959FC1F3950F50E0551F629FF001FD
S1130A70729FBB27F00DB11D639FAA27F00DB11D16
S1130A80AA1F649F6627B00DA11D661F829F22279F
S1130A90B00DA11D621F739FB00DA11D621F839F26
S1130AA0A00D611D221F749F3327A00D611D231FFC
S1130AB0849F600D211D822F762F6A2F11249F574A
S1130AC050409AF0F1F088234AF0EE0FFF1FBB1F4D
S1130AD0661F771F881F91505040A9F79E3F51050C
S1130AE080F00C94CA040C9415055F3FE4F3983E1F
S1130AF0D4F3869577956795B795F795E7959F5FB6
S1130B00C1F7FE2B880F911D9695879597F9089547
S1130B10A1E21A2EAA1BBB1BFD010DC0AA1FBB1FFD
S1130B20EE1FFF1FA217B307E407F50720F0A21B6F
S1130B30B30BE40BF50B661F771F881F991F1A94DC
S1130B4069F760957095809590959B01AC01BD0106
S1130B50CF010895BB274A3031F4992322F4BDE232
S1130B60909581959F4F0C94B605BB27FB015527A3
S1130B70AA27880F991FAA1FA41710F0A41B8395F6
S1130B805051B9F7A05DAA3308F0A95DA19300976D
S1130B9079F7B111B1931192CB010C94CF05DC011B
S1130BA0FC01672F71917723E1F7329704C07C91A0
S1130BB06D9370836291AE17BF07C8F30895F894DC
S1050BC0FFCF61
S1130BC220636D200044697374616E6365206973E8
S1130BD2004D6F7665206261636B004D6F76652010
S1130BE26C656674004D6F7665207269676874007F
S1130BF2204D6F766520666F727761726420000003
S9030000FC
